{"abi":[{"type":"function","name":"addVault","inputs":[],"outputs":[{"name":"vaultId","type":"uint256","internalType":"uint256"}],"stateMutability":"nonpayable"},{"type":"function","name":"deposit","inputs":[{"name":"vaultId","type":"uint256","internalType":"uint256"}],"outputs":[],"stateMutability":"payable"},{"type":"function","name":"getMyVaults","inputs":[],"outputs":[{"name":"","type":"uint256[]","internalType":"uint256[]"}],"stateMutability":"view"},{"type":"function","name":"getVault","inputs":[{"name":"vaultId","type":"uint256","internalType":"uint256"}],"outputs":[{"name":"","type":"tuple","internalType":"struct VaultManager.Vault","components":[{"name":"owner","type":"address","internalType":"address"},{"name":"balance","type":"uint256","internalType":"uint256"}]}],"stateMutability":"view"},{"type":"function","name":"getVaultsLength","inputs":[],"outputs":[{"name":"","type":"uint256","internalType":"uint256"}],"stateMutability":"view"},{"type":"function","name":"vaults","inputs":[{"name":"","type":"uint256","internalType":"uint256"}],"outputs":[{"name":"owner","type":"address","internalType":"address"},{"name":"balance","type":"uint256","internalType":"uint256"}],"stateMutability":"view"},{"type":"function","name":"vaultsByOwner","inputs":[{"name":"","type":"address","internalType":"address"},{"name":"","type":"uint256","internalType":"uint256"}],"outputs":[{"name":"","type":"uint256","internalType":"uint256"}],"stateMutability":"view"},{"type":"function","name":"withdraw","inputs":[{"name":"vaultId","type":"uint256","internalType":"uint256"},{"name":"amount","type":"uint256","internalType":"uint256"}],"outputs":[],"stateMutability":"nonpayable"},{"type":"event","name":"VaultAdded","inputs":[{"name":"vaultId","type":"uint256","indexed":true,"internalType":"uint256"},{"name":"owner","type":"address","indexed":false,"internalType":"address"}],"anonymous":false},{"type":"event","name":"VaultDeposited","inputs":[{"name":"vaultId","type":"uint256","indexed":true,"internalType":"uint256"},{"name":"depositor","type":"address","indexed":false,"internalType":"address"},{"name":"amount","type":"uint256","indexed":false,"internalType":"uint256"}],"anonymous":false},{"type":"event","name":"VaultWithdrawn","inputs":[{"name":"vaultId","type":"uint256","indexed":true,"internalType":"uint256"},{"name":"withdrawer","type":"address","indexed":false,"internalType":"address"},{"name":"amount","type":"uint256","indexed":false,"internalType":"uint256"}],"anonymous":false},{"type":"error","name":"Unauthorised","inputs":[]}],"bytecode":{"object":"0x608060405234801561001057600080fd5b506108c8806100206000396000f3fe60806040526004361061007b5760003560e01c80638c64ea4a1161004e5780638c64ea4a146100ff5780639403b6341461013e578063b6b55f2514610182578063fb3ddf571461019557600080fd5b80631a0121db14610080578063441a3e70146100b357806344b19dfc146100d55780638c533411146100ea575b600080fd5b34801561008c57600080fd5b506100a061009b366004610783565b6101b7565b6040519081526020015b60405180910390f35b3480156100bf57600080fd5b506100d36100ce3660046107bb565b6101e8565b005b3480156100e157600080fd5b506000546100a0565b3480156100f657600080fd5b506100a061042b565b34801561010b57600080fd5b5061011f61011a3660046107dd565b610529565b604080516001600160a01b0390931683526020830191909152016100aa565b34801561014a57600080fd5b5061015e6101593660046107dd565b610561565b6040805182516001600160a01b0316815260209283015192810192909252016100aa565b6100d36101903660046107dd565b6105c1565b3480156101a157600080fd5b506101aa610722565b6040516100aa91906107f6565b600160205281600052604060002081815481106101d357600080fd5b90600052602060002001600091509150505481565b81336001600160a01b0316600082815481106102065761020661083a565b60009182526020909120600290910201546001600160a01b03161461023e57604051636bd1573560e11b815260040160405180910390fd5b60005483106102875760405162461bcd60e51b815260206004820152601060248201526f125b9d985b1a59081d985d5b1d08125160821b60448201526064015b60405180910390fd5b600082116102d75760405162461bcd60e51b815260206004820181905260248201527f416d6f756e74206d7573742062652067726561746572207468616e207a65726f604482015260640161027e565b60008084815481106102eb576102eb61083a565b9060005260206000209060020201905082816001015410156103465760405162461bcd60e51b8152602060048201526014602482015273496e73756666696369656e742062616c616e636560601b604482015260640161027e565b8281600101600082825461035a9190610866565b9091555050604051600090339085908381818185875af1925050503d80600081146103a1576040519150601f19603f3d011682016040523d82523d6000602084013e6103a6565b606091505b50509050806103e95760405162461bcd60e51b815260206004820152600f60248201526e151c985b9cd9995c8819985a5b1959608a1b604482015260640161027e565b604080513381526020810186905286917f78c42d93b539654d49abadf8d324e5b8177c66f0c0b1adc5e07babb9e141135e910160405180910390a25050505050565b6040805180820190915233815260006020820181815281546001808201845583805284517f290decd9548b62a8d60345a988386fc84ba6bc95484008f6362f93160ef3e563600290930292830180546001600160a01b0319166001600160a01b0390921691909117905591517f290decd9548b62a8d60345a988386fc84ba6bc95484008f6362f93160ef3e5649091015581549192916104cb9190610866565b33600081815260016020818152604080842080549384018155845292819020909101849055905191825291935083917fa3ccd9b56d18a571b67b97905e5ef425788000d31a490513f7cad937175beeeb910160405180910390a25090565b6000818154811061053957600080fd5b6000918252602090912060029091020180546001909101546001600160a01b03909116915082565b6040805180820190915260008082526020820152600082815481106105885761058861083a565b60009182526020918290206040805180820190915260029092020180546001600160a01b03168252600101549181019190915292915050565b80336001600160a01b0316600082815481106105df576105df61083a565b60009182526020909120600290910201546001600160a01b03161461061757604051636bd1573560e11b815260040160405180910390fd5b600054821061065b5760405162461bcd60e51b815260206004820152601060248201526f125b9d985b1a59081d985d5b1d08125160821b604482015260640161027e565b600034116106ab5760405162461bcd60e51b815260206004820152601e60248201527f4d757374206465706f736974206120706f73697469766520616d6f756e740000604482015260640161027e565b34600083815481106106bf576106bf61083a565b906000526020600020906002020160010160008282546106df919061087f565b90915550506040805133815234602082015283917fc9845b8d43876db2ecb476d08d43b65d274a0b2562254643fd7a6b9fb3c0de5e910160405180910390a25050565b3360009081526001602090815260409182902080548351818402810184019094528084526060939283018282801561077957602002820191906000526020600020905b815481526020019060010190808311610765575b5050505050905090565b6000806040838503121561079657600080fd5b82356001600160a01b03811681146107ad57600080fd5b946020939093013593505050565b600080604083850312156107ce57600080fd5b50508035926020909101359150565b6000602082840312156107ef57600080fd5b5035919050565b6020808252825182820181905260009190848201906040850190845b8181101561082e57835183529284019291840191600101610812565b50909695505050505050565b634e487b7160e01b600052603260045260246000fd5b634e487b7160e01b600052601160045260246000fd5b8181038181111561087957610879610850565b92915050565b808201808211156108795761087961085056fea26469706673582212208b77fc7e174daad88ce8da2cc7da40a56a6b80091b4b6b26518a59d6f8e305d964736f6c63430008180033","linkReferences":{}},"methodIdentifiers":{"addVault()":"8c533411","deposit(uint256)":"b6b55f25","getMyVaults()":"fb3ddf57","getVault(uint256)":"9403b634","getVaultsLength()":"44b19dfc","vaults(uint256)":"8c64ea4a","vaultsByOwner(address,uint256)":"1a0121db","withdraw(uint256,uint256)":"441a3e70"},"id":25}